{
  "_format": "hh-sol-artifact-1",
  "contractName": "LandRegistry",
  "sourceName": "contracts/LandRegistry.sol",
  "abi": [
    {
      "inputs": [],
      "stateMutability": "nonpayable",
      "type": "constructor"
    },
    {
      "anonymous": false,
      "inputs": [
        {
          "indexed": true,
          "internalType": "uint256",
          "name": "landId",
          "type": "uint256"
        },
        {
          "indexed": true,
          "internalType": "address",
          "name": "owner",
          "type": "address"
        }
      ],
      "name": "LandRegistered",
      "type": "event"
    },
    {
      "anonymous": false,
      "inputs": [
        {
          "indexed": true,
          "internalType": "uint256",
          "name": "landId",
          "type": "uint256"
        },
        {
          "indexed": true,
          "internalType": "address",
          "name": "from",
          "type": "address"
        },
        {
          "indexed": true,
          "internalType": "address",
          "name": "to",
          "type": "address"
        }
      ],
      "name": "OwnershipTransferred",
      "type": "event"
    },
    {
      "inputs": [],
      "name": "admin",
      "outputs": [
        {
          "internalType": "address",
          "name": "",
          "type": "address"
        }
      ],
      "stateMutability": "view",
      "type": "function"
    },
    {
      "inputs": [
        {
          "internalType": "uint256",
          "name": "_landId",
          "type": "uint256"
        }
      ],
      "name": "getHistory",
      "outputs": [
        {
          "internalType": "address[]",
          "name": "",
          "type": "address[]"
        }
      ],
      "stateMutability": "view",
      "type": "function"
    },
    {
      "inputs": [
        {
          "internalType": "uint256",
          "name": "_landId",
          "type": "uint256"
        }
      ],
      "name": "getOwner",
      "outputs": [
        {
          "internalType": "address",
          "name": "",
          "type": "address"
        }
      ],
      "stateMutability": "view",
      "type": "function"
    },
    {
      "inputs": [],
      "name": "landCount",
      "outputs": [
        {
          "internalType": "uint256",
          "name": "",
          "type": "uint256"
        }
      ],
      "stateMutability": "view",
      "type": "function"
    },
    {
      "inputs": [
        {
          "internalType": "uint256",
          "name": "",
          "type": "uint256"
        }
      ],
      "name": "lands",
      "outputs": [
        {
          "internalType": "uint256",
          "name": "id",
          "type": "uint256"
        },
        {
          "internalType": "string",
          "name": "location",
          "type": "string"
        },
        {
          "internalType": "uint256",
          "name": "area",
          "type": "uint256"
        },
        {
          "internalType": "address",
          "name": "owner",
          "type": "address"
        }
      ],
      "stateMutability": "view",
      "type": "function"
    },
    {
      "inputs": [
        {
          "internalType": "string",
          "name": "_location",
          "type": "string"
        },
        {
          "internalType": "uint256",
          "name": "_area",
          "type": "uint256"
        },
        {
          "internalType": "address",
          "name": "_landOwner",
          "type": "address"
        }
      ],
      "name": "registerLand",
      "outputs": [],
      "stateMutability": "nonpayable",
      "type": "function"
    },
    {
      "inputs": [
        {
          "internalType": "uint256",
          "name": "_landId",
          "type": "uint256"
        },
        {
          "internalType": "address",
          "name": "_newOwner",
          "type": "address"
        }
      ],
      "name": "transferOwnership",
      "outputs": [],
      "stateMutability": "nonpayable",
      "type": "function"
    }
  ],
  "bytecode": "0x6080604052600060025534801561001557600080fd5b50336000806101000a81548173ffffffffffffffffffffffffffffffffffffffff021916908373ffffffffffffffffffffffffffffffffffffffff1602179055506111ad806100656000396000f3fe608060405234801561001057600080fd5b506004361061007d5760003560e01c8063c8691b2a1161005b578063c8691b2a146100ea578063d7bce6581461011a578063e261f1e514610138578063f851a4401461016b5761007d565b806329507f73146100825780634895f36d1461009e578063c41a360a146100ba575b600080fd5b61009c600480360381019061009791906108bd565b610189565b005b6100b860048036038101906100b39190610a43565b6103b5565b005b6100d460048036038101906100cf9190610ab2565b61058e565b6040516100e19190610aee565b60405180910390f35b61010460048036038101906100ff9190610ab2565b61061e565b6040516101119190610bc7565b60405180910390f35b610122610713565b60405161012f9190610bf8565b60405180910390f35b610152600480360381019061014d9190610ab2565b610719565b6040516101629493929190610c92565b60405180910390f35b6101736107f1565b6040516101809190610aee565b60405180910390f35b60008211801561019b57506002548211155b6101da576040517f08c379a00000000000000000000000000000000000000000000000000000000081526004016101d190610d2a565b60405180910390fd5b60006001600084815260200190815260200160002090508060030160009054906101000a900473ffffffffffffffffffffffffffffffffffffffff1673ffffffffffffffffffffffffffffffffffffffff163373ffffffffffffffffffffffffffffffffffffffff1614610283576040517f08c379a000000000000000000000000000000000000000000000000000000000815260040161027a90610d96565b60405180910390fd5b60008160030160009054906101000a900473ffffffffffffffffffffffffffffffffffffffff169050828260030160006101000a81548173ffffffffffffffffffffffffffffffffffffffff021916908373ffffffffffffffffffffffffffffffffffffffff16021790555081600401839080600181540180825580915050600190039060005260206000200160009091909190916101000a81548173ffffffffffffffffffffffffffffffffffffffff021916908373ffffffffffffffffffffffffffffffffffffffff1602179055508273ffffffffffffffffffffffffffffffffffffffff168173ffffffffffffffffffffffffffffffffffffffff16857f16b85f49bf01212961345d3016c9a531894accf62eb7680f2045d79185cc0ec060405160405180910390a450505050565b60008054906101000a900473ffffffffffffffffffffffffffffffffffffffff1673ffffffffffffffffffffffffffffffffffffffff163373ffffffffffffffffffffffffffffffffffffffff1614610443576040517f08c379a000000000000000000000000000000000000000000000000000000000815260040161043a90610e02565b60405180910390fd5b6002600081548092919061045690610e51565b91905055506000600160006002548152602001908152602001600020905060025481600001819055508381600101908161049091906110a5565b50828160020181905550818160030160006101000a81548173ffffffffffffffffffffffffffffffffffffffff021916908373ffffffffffffffffffffffffffffffffffffffff16021790555080600401829080600181540180825580915050600190039060005260206000200160009091909190916101000a81548173ffffffffffffffffffffffffffffffffffffffff021916908373ffffffffffffffffffffffffffffffffffffffff1602179055508173ffffffffffffffffffffffffffffffffffffffff166002547fcb4990052f95f6057496d19524f6c3163f50af9f33f2c15b092928e03414323e60405160405180910390a350505050565b600080821180156105a157506002548211155b6105e0576040517f08c379a00000000000000000000000000000000000000000000000000000000081526004016105d790610d2a565b60405180910390fd5b6001600083815260200190815260200160002060030160009054906101000a900473ffffffffffffffffffffffffffffffffffffffff169050919050565b606060008211801561063257506002548211155b610671576040517f08c379a000000000000000000000000000000000000000000000000000000000815260040161066890610d2a565b60405180910390fd5b6001600083815260200190815260200160002060040180548060200260200160405190810160405280929190818152602001828054801561070757602002820191906000526020600020905b8160009054906101000a900473ffffffffffffffffffffffffffffffffffffffff1673ffffffffffffffffffffffffffffffffffffffff16815260200190600101908083116106bd575b50505050509050919050565b60025481565b600160205280600052604060002060009150905080600001549080600101805461074290610ec8565b80601f016020809104026020016040519081016040528092919081815260200182805461076e90610ec8565b80156107bb5780601f10610790576101008083540402835291602001916107bb565b820191906000526020600020905b81548152906001019060200180831161079e57829003601f168201915b5050505050908060020154908060030160009054906101000a900473ffffffffffffffffffffffffffffffffffffffff16905084565b60008054906101000a900473ffffffffffffffffffffffffffffffffffffffff1681565b6000604051905090565b600080fd5b600080fd5b6000819050919050565b61083c81610829565b811461084757600080fd5b50565b60008135905061085981610833565b92915050565b600073ffffffffffffffffffffffffffffffffffffffff82169050919050565b600061088a8261085f565b9050919050565b61089a8161087f565b81146108a557600080fd5b50565b6000813590506108b781610891565b92915050565b600080604083850312156108d4576108d361081f565b5b60006108e28582860161084a565b92505060206108f3858286016108a8565b9150509250929050565b600080fd5b600080fd5b6000601f19601f8301169050919050565b7f4e487b7100000000000000000000000000000000000000000000000000000000600052604160045260246000fd5b61095082610907565b810181811067ffffffffffffffff8211171561096f5761096e610918565b5b80604052505050565b6000610982610815565b905061098e8282610947565b919050565b600067ffffffffffffffff8211156109ae576109ad610918565b5b6109b782610907565b9050602081019050919050565b82818337600083830152505050565b60006109e66109e184610993565b610978565b905082815260208101848484011115610a0257610a01610902565b5b610a0d8482856109c4565b509392505050565b600082601f830112610a2a57610a296108fd565b5b8135610a3a8482602086016109d3565b91505092915050565b600080600060608486031215610a5c57610a5b61081f565b5b600084013567ffffffffffffffff811115610a7a57610a79610824565b5b610a8686828701610a15565b9350506020610a978682870161084a565b9250506040610aa8868287016108a8565b9150509250925092565b600060208284031215610ac857610ac761081f565b5b6000610ad68482850161084a565b91505092915050565b610ae88161087f565b82525050565b6000602082019050610b036000830184610adf565b92915050565b600081519050919050565b600082825260208201905092915050565b6000819050602082019050919050565b610b3e8161087f565b82525050565b6000610b508383610b35565b60208301905092915050565b6000602082019050919050565b6000610b7482610b09565b610b7e8185610b14565b9350610b8983610b25565b8060005b83811015610bba578151610ba18882610b44565b9750610bac83610b5c565b925050600181019050610b8d565b5085935050505092915050565b60006020820190508181036000830152610be18184610b69565b905092915050565b610bf281610829565b82525050565b6000602082019050610c0d6000830184610be9565b92915050565b600081519050919050565b600082825260208201905092915050565b60005b83811015610c4d578082015181840152602081019050610c32565b60008484015250505050565b6000610c6482610c13565b610c6e8185610c1e565b9350610c7e818560208601610c2f565b610c8781610907565b840191505092915050565b6000608082019050610ca76000830187610be9565b8181036020830152610cb98186610c59565b9050610cc86040830185610be9565b610cd56060830184610adf565b95945050505050565b7f496e76616c6964206c616e642049440000000000000000000000000000000000600082015250565b6000610d14600f83610c1e565b9150610d1f82610cde565b602082019050919050565b60006020820190508181036000830152610d4381610d07565b9050919050565b7f4f6e6c79206f776e65722063616e207472616e73666572000000000000000000600082015250565b6000610d80601783610c1e565b9150610d8b82610d4a565b602082019050919050565b60006020820190508181036000830152610daf81610d73565b9050919050565b7f4f6e6c792061646d696e2063616e207265676973746572206c616e6400000000600082015250565b6000610dec601c83610c1e565b9150610df782610db6565b602082019050919050565b60006020820190508181036000830152610e1b81610ddf565b9050919050565b7f4e487b7100000000000000000000000000000000000000000000000000000000600052601160045260246000fd5b6000610e5c82610829565b91507fffffffffffffffffffffffffffffffffffffffffffffffffffffffffffffffff8203610e8e57610e8d610e22565b5b600182019050919050565b7f4e487b7100000000000000000000000000000000000000000000000000000000600052602260045260246000fd5b60006002820490506001821680610ee057607f821691505b602082108103610ef357610ef2610e99565b5b50919050565b60008190508160005260206000209050919050565b60006020601f8301049050919050565b600082821b905092915050565b600060088302610f5b7fffffffffffffffffffffffffffffffffffffffffffffffffffffffffffffffff82610f1e565b610f658683610f1e565b95508019841693508086168417925050509392505050565b6000819050919050565b6000610fa2610f9d610f9884610829565b610f7d565b610829565b9050919050565b6000819050919050565b610fbc83610f87565b610fd0610fc882610fa9565b848454610f2b565b825550505050565b600090565b610fe5610fd8565b610ff0818484610fb3565b505050565b5b8181101561101457611009600082610fdd565b600181019050610ff6565b5050565b601f8211156110595761102a81610ef9565b61103384610f0e565b81016020851015611042578190505b61105661104e85610f0e565b830182610ff5565b50505b505050565b600082821c905092915050565b600061107c6000198460080261105e565b1980831691505092915050565b6000611095838361106b565b9150826002028217905092915050565b6110ae82610c13565b67ffffffffffffffff8111156110c7576110c6610918565b5b6110d18254610ec8565b6110dc828285611018565b600060209050601f83116001811461110f57600084156110fd578287015190505b6111078582611089565b86555061116f565b601f19841661111d86610ef9565b60005b8281101561114557848901518255600182019150602085019450602081019050611120565b86831015611162578489015161115e601f89168261106b565b8355505b6001600288020188555050505b50505050505056fea26469706673582212202659c3217367e629b939f9fcc6e9d45393be8dd5f19643828ffdb20831aa8b6464736f6c63430008140033",
  "linkReferences": {},
  "deployedLinkReferences": {}
}